{
  "_format": "hh-sol-artifact-1",
  "contractName": "Vault",
  "sourceName": "contracts/Vault.sol",
  "abi": [
    {
      "inputs": [],
      "stateMutability": "nonpayable",
      "type": "constructor"
    },
    {
      "anonymous": false,
      "inputs": [
        {
          "indexed": false,
          "internalType": "uint256",
          "name": "amount",
          "type": "uint256"
        },
        {
          "indexed": false,
          "internalType": "address",
          "name": "to",
          "type": "address"
        }
      ],
      "name": "EventWithdraw",
      "type": "event"
    },
    {
      "anonymous": false,
      "inputs": [
        {
          "indexed": true,
          "internalType": "address",
          "name": "previousOwner",
          "type": "address"
        },
        {
          "indexed": true,
          "internalType": "address",
          "name": "newOwner",
          "type": "address"
        }
      ],
      "name": "OwnershipTransferred",
      "type": "event"
    },
    {
      "anonymous": false,
      "inputs": [
        {
          "indexed": false,
          "internalType": "uint256",
          "name": "AdminAmount",
          "type": "uint256"
        }
      ],
      "name": "TopUp",
      "type": "event"
    },
    {
      "anonymous": false,
      "inputs": [
        {
          "indexed": false,
          "internalType": "uint256",
          "name": "user_amount",
          "type": "uint256"
        },
        {
          "indexed": false,
          "internalType": "address",
          "name": "UserAddress",
          "type": "address"
        }
      ],
      "name": "UserDeposit",
      "type": "event"
    },
    {
      "inputs": [],
      "name": "WITHDRAWER_ROLE",
      "outputs": [
        {
          "internalType": "bytes32",
          "name": "",
          "type": "bytes32"
        }
      ],
      "stateMutability": "view",
      "type": "function"
    },
    {
      "inputs": [],
      "name": "maxWithdrawAmount",
      "outputs": [
        {
          "internalType": "uint256",
          "name": "",
          "type": "uint256"
        }
      ],
      "stateMutability": "view",
      "type": "function"
    },
    {
      "inputs": [],
      "name": "owner",
      "outputs": [
        {
          "internalType": "address",
          "name": "",
          "type": "address"
        }
      ],
      "stateMutability": "view",
      "type": "function"
    },
    {
      "inputs": [],
      "name": "renounceOwnership",
      "outputs": [],
      "stateMutability": "nonpayable",
      "type": "function"
    },
    {
      "inputs": [
        {
          "internalType": "uint256",
          "name": "_maxAmount",
          "type": "uint256"
        }
      ],
      "name": "setMaxWithdrawAmount",
      "outputs": [],
      "stateMutability": "nonpayable",
      "type": "function"
    },
    {
      "inputs": [
        {
          "internalType": "bool",
          "name": "_isEnable",
          "type": "bool"
        }
      ],
      "name": "setWithdrawEnable",
      "outputs": [],
      "stateMutability": "nonpayable",
      "type": "function"
    },
    {
      "inputs": [
        {
          "internalType": "address",
          "name": "newOwner",
          "type": "address"
        }
      ],
      "name": "transferOwnership",
      "outputs": [],
      "stateMutability": "nonpayable",
      "type": "function"
    },
    {
      "inputs": [
        {
          "internalType": "uint256",
          "name": "_amount",
          "type": "uint256"
        },
        {
          "internalType": "address",
          "name": "_to",
          "type": "address"
        }
      ],
      "name": "withdraw",
      "outputs": [],
      "stateMutability": "nonpayable",
      "type": "function"
    },
    {
      "inputs": [],
      "name": "withdrawEnable",
      "outputs": [
        {
          "internalType": "bool",
          "name": "",
          "type": "bool"
        }
      ],
      "stateMutability": "view",
      "type": "function"
    },
    {
      "stateMutability": "payable",
      "type": "receive"
    }
  ],
  "bytecode": "0x608060405234801561001057600080fd5b5061002d61002261003260201b60201c565b61003a60201b60201c565b6100fe565b600033905090565b60008060009054906101000a900473ffffffffffffffffffffffffffffffffffffffff169050816000806101000a81548173ffffffffffffffffffffffffffffffffffffffff021916908373ffffffffffffffffffffffffffffffffffffffff1602179055508173ffffffffffffffffffffffffffffffffffffffff168173ffffffffffffffffffffffffffffffffffffffff167f8be0079c531659141344cd1fd0a4f28419497f9722a3daafe3b4186f6b6457e060405160405180910390a35050565b610ca08061010d6000396000f3fe6080604052600436106100895760003560e01c80638da5cb5b116100595780638da5cb5b146101d9578063b5b68afe14610204578063df74e0281461022f578063f2fde38b14610258578063f516440c1461028157610140565b8062f714ce14610145578063715018a61461016e578063827a560b1461018557806385f438c1146101ae57610140565b36610140576100966102ac565b73ffffffffffffffffffffffffffffffffffffffff163373ffffffffffffffffffffffffffffffffffffffff1603610104577fda2e4740b4f8dbc9c015838c5afe6c4bc81a903b263dfebfb8776e7886d1f62e346040516100f79190610829565b60405180910390a161013e565b7fb391639a04466a30868f922cde0b9ad39c2df38812bb39e096b665038a1201923433604051610135929190610885565b60405180910390a15b005b600080fd5b34801561015157600080fd5b5061016c6004803603810190610167919061090b565b6102d5565b005b34801561017a57600080fd5b50610183610469565b005b34801561019157600080fd5b506101ac60048036038101906101a79190610983565b6104f1565b005b3480156101ba57600080fd5b506101c361058a565b6040516101d091906109c9565b60405180910390f35b3480156101e557600080fd5b506101ee6102ac565b6040516101fb91906109e4565b60405180910390f35b34801561021057600080fd5b506102196105ae565b6040516102269190610a0e565b60405180910390f35b34801561023b57600080fd5b5061025660048036038101906102519190610a29565b6105c1565b005b34801561026457600080fd5b5061027f600480360381019061027a9190610a56565b610647565b005b34801561028d57600080fd5b5061029661073e565b6040516102a39190610829565b60405180910390f35b60008060009054906101000a900473ffffffffffffffffffffffffffffffffffffffff16905090565b6102dd610744565b73ffffffffffffffffffffffffffffffffffffffff166102fb6102ac565b73ffffffffffffffffffffffffffffffffffffffff1614610351576040517f08c379a000000000000000000000000000000000000000000000000000000000815260040161034890610ae0565b60405180910390fd5b600260009054906101000a900460ff166103a0576040517f08c379a000000000000000000000000000000000000000000000000000000000815260040161039790610b4c565b60405180910390fd5b6001548211156103e5576040517f08c379a00000000000000000000000000000000000000000000000000000000081526004016103dc90610bb8565b60405180910390fd5b8073ffffffffffffffffffffffffffffffffffffffff166108fc839081150290604051600060405180830381858888f1935050505015801561042b573d6000803e3d6000fd5b507f85eae98551d810f4262f4597584f04643b4d9577dbff3da49b8fdf12ec7eca19828260405161045d929190610885565b60405180910390a15050565b610471610744565b73ffffffffffffffffffffffffffffffffffffffff1661048f6102ac565b73ffffffffffffffffffffffffffffffffffffffff16146104e5576040517f08c379a00000000000000000000000000000000000000000000000000000000081526004016104dc90610ae0565b60405180910390fd5b6104ef600061074c565b565b6104f9610744565b73ffffffffffffffffffffffffffffffffffffffff166105176102ac565b73ffffffffffffffffffffffffffffffffffffffff161461056d576040517f08c379a000000000000000000000000000000000000000000000000000000000815260040161056490610ae0565b60405180910390fd5b80600260006101000a81548160ff02191690831515021790555050565b7f10dac8c06a04bec0b551627dad28bc00d6516b0caacd1c7b345fcdb5211334e481565b600260009054906101000a900460ff1681565b6105c9610744565b73ffffffffffffffffffffffffffffffffffffffff166105e76102ac565b73ffffffffffffffffffffffffffffffffffffffff161461063d576040517f08c379a000000000000000000000000000000000000000000000000000000000815260040161063490610ae0565b60405180910390fd5b8060018190555050565b61064f610744565b73ffffffffffffffffffffffffffffffffffffffff1661066d6102ac565b73ffffffffffffffffffffffffffffffffffffffff16146106c3576040517f08c379a00000000000000000000000000000000000000000000000000000000081526004016106ba90610ae0565b60405180910390fd5b600073ffffffffffffffffffffffffffffffffffffffff168173ffffffffffffffffffffffffffffffffffffffff1603610732576040517f08c379a000000000000000000000000000000000000000000000000000000000815260040161072990610c4a565b60405180910390fd5b61073b8161074c565b50565b60015481565b600033905090565b60008060009054906101000a900473ffffffffffffffffffffffffffffffffffffffff169050816000806101000a81548173ffffffffffffffffffffffffffffffffffffffff021916908373ffffffffffffffffffffffffffffffffffffffff1602179055508173ffffffffffffffffffffffffffffffffffffffff168173ffffffffffffffffffffffffffffffffffffffff167f8be0079c531659141344cd1fd0a4f28419497f9722a3daafe3b4186f6b6457e060405160405180910390a35050565b6000819050919050565b61082381610810565b82525050565b600060208201905061083e600083018461081a565b92915050565b600073ffffffffffffffffffffffffffffffffffffffff82169050919050565b600061086f82610844565b9050919050565b61087f81610864565b82525050565b600060408201905061089a600083018561081a565b6108a76020830184610876565b9392505050565b600080fd5b6108bc81610810565b81146108c757600080fd5b50565b6000813590506108d9816108b3565b92915050565b6108e881610864565b81146108f357600080fd5b50565b600081359050610905816108df565b92915050565b60008060408385031215610922576109216108ae565b5b6000610930858286016108ca565b9250506020610941858286016108f6565b9150509250929050565b60008115159050919050565b6109608161094b565b811461096b57600080fd5b50565b60008135905061097d81610957565b92915050565b600060208284031215610999576109986108ae565b5b60006109a78482850161096e565b91505092915050565b6000819050919050565b6109c3816109b0565b82525050565b60006020820190506109de60008301846109ba565b92915050565b60006020820190506109f96000830184610876565b92915050565b610a088161094b565b82525050565b6000602082019050610a2360008301846109ff565b92915050565b600060208284031215610a3f57610a3e6108ae565b5b6000610a4d848285016108ca565b91505092915050565b600060208284031215610a6c57610a6b6108ae565b5b6000610a7a848285016108f6565b91505092915050565b600082825260208201905092915050565b7f4f776e61626c653a2063616c6c6572206973206e6f7420746865206f776e6572600082015250565b6000610aca602083610a83565b9150610ad582610a94565b602082019050919050565b60006020820190508181036000830152610af981610abd565b9050919050565b7f5769746864726177206973206e6f7420617661696c61626c6500000000000000600082015250565b6000610b36601983610a83565b9150610b4182610b00565b602082019050919050565b60006020820190508181036000830152610b6581610b29565b9050919050565b7f457863656564206d6178696d756d20616d6f756e740000000000000000000000600082015250565b6000610ba2601583610a83565b9150610bad82610b6c565b602082019050919050565b60006020820190508181036000830152610bd181610b95565b9050919050565b7f4f776e61626c653a206e6577206f776e657220697320746865207a65726f206160008201527f6464726573730000000000000000000000000000000000000000000000000000602082015250565b6000610c34602683610a83565b9150610c3f82610bd8565b604082019050919050565b60006020820190508181036000830152610c6381610c27565b905091905056fea26469706673582212202875324bb5ea850385d009a84c53f95ad3ae59ed5f002cae989c1a836690fe0a64736f6c63430008110033",
  "linkReferences": {},
  "deployedLinkReferences": {}
}