{"contracts/Vault.sol":{"Vault":{"abi":[{"inputs":[],"stateMutability":"nonpayable","type":"constructor"},{"anonymous":false,"inputs":[{"indexed":false,"internalType":"uint256","name":"amount","type":"uint256"},{"indexed":false,"internalType":"address","name":"to","type":"address"}],"name":"EventWithdraw","type":"event"},{"anonymous":false,"inputs":[{"indexed":true,"internalType":"address","name":"previousOwner","type":"address"},{"indexed":true,"internalType":"address","name":"newOwner","type":"address"}],"name":"OwnershipTransferred","type":"event"},{"anonymous":false,"inputs":[{"indexed":false,"internalType":"uint256","name":"AdminAmount","type":"uint256"}],"name":"TopUp","type":"event"},{"anonymous":false,"inputs":[{"indexed":false,"internalType":"uint256","name":"user_amount","type":"uint256"},{"indexed":false,"internalType":"address","name":"UserAddress","type":"address"}],"name":"UserDeposit","type":"event"},{"inputs":[{"internalType":"uint256","name":"_amount","type":"uint256"}],"name":"deposit","outputs":[],"stateMutability":"nonpayable","type":"function"},{"inputs":[],"name":"maxWithdrawAmount","outputs":[{"internalType":"uint256","name":"","type":"uint256"}],"stateMutability":"view","type":"function"},{"inputs":[],"name":"owner","outputs":[{"internalType":"address","name":"","type":"address"}],"stateMutability":"view","type":"function"},{"inputs":[],"name":"renounceOwnership","outputs":[],"stateMutability":"nonpayable","type":"function"},{"inputs":[{"internalType":"uint256","name":"_maxAmount","type":"uint256"}],"name":"setMaxWithdrawAmount","outputs":[],"stateMutability":"nonpayable","type":"function"},{"inputs":[{"internalType":"contract IERC20","name":"_token","type":"address"}],"name":"setToken","outputs":[],"stateMutability":"nonpayable","type":"function"},{"inputs":[{"internalType":"bool","name":"_isEnable","type":"bool"}],"name":"setWithdrawEnable","outputs":[],"stateMutability":"nonpayable","type":"function"},{"inputs":[{"internalType":"address","name":"newOwner","type":"address"}],"name":"transferOwnership","outputs":[],"stateMutability":"nonpayable","type":"function"},{"inputs":[{"internalType":"uint256","name":"_amount","type":"uint256"},{"internalType":"address","name":"_to","type":"address"}],"name":"withdraw","outputs":[],"stateMutability":"nonpayable","type":"function"},{"inputs":[],"name":"withdrawEnable","outputs":[{"internalType":"bool","name":"","type":"bool"}],"stateMutability":"view","type":"function"}],"evm":{"bytecode":{"linkReferences":{},"object":"608060405234801561001057600080fd5b5061002d61002261003260201b60201c565b61003a60201b60201c565b6100fe565b600033905090565b60008060009054906101000a900473ffffffffffffffffffffffffffffffffffffffff169050816000806101000a81548173ffffffffffffffffffffffffffffffffffffffff021916908373ffffffffffffffffffffffffffffffffffffffff1602179055508173ffffffffffffffffffffffffffffffffffffffff168173ffffffffffffffffffffffffffffffffffffffff167f8be0079c531659141344cd1fd0a4f28419497f9722a3daafe3b4186f6b6457e060405160405180910390a35050565b6115228061010d6000396000f3fe608060405234801561001057600080fd5b506004361061009d5760003560e01c8063b5b68afe11610066578063b5b68afe1461011e578063b6b55f251461013c578063df74e02814610158578063f2fde38b14610174578063f516440c146101905761009d565b8062f714ce146100a2578063144fa6d7146100be578063715018a6146100da578063827a560b146100e45780638da5cb5b14610100575b600080fd5b6100bc60048036038101906100b79190610d15565b6101ae565b005b6100d860048036038101906100d39190610d93565b6103af565b005b6100e261046f565b005b6100fe60048036038101906100f99190610df8565b6104f7565b005b610108610590565b6040516101159190610e34565b60405180910390f35b6101266105b9565b6040516101339190610e5e565b60405180910390f35b61015660048036038101906101519190610e79565b6105cc565b005b610172600480360381019061016d9190610e79565b610714565b005b61018e60048036038101906101899190610ea6565b61079a565b005b610198610891565b6040516101a59190610ee2565b60405180910390f35b6101b6610897565b73ffffffffffffffffffffffffffffffffffffffff166101d4610590565b73ffffffffffffffffffffffffffffffffffffffff161461022a576040517f08c379a000000000000000000000000000000000000000000000000000000000815260040161022190610f5a565b60405180910390fd5b6102333361089f565b1561023d57600080fd5b600360009054906101000a900460ff1661028c576040517f08c379a000000000000000000000000000000000000000000000000000000000815260040161028390610fc6565b60405180910390fd5b6002548211156102d1576040517f08c379a00000000000000000000000000000000000000000000000000000000081526004016102c890611032565b60405180910390fd5b600160009054906101000a900473ffffffffffffffffffffffffffffffffffffffff1673ffffffffffffffffffffffffffffffffffffffff1663a9059cbb82846040518363ffffffff1660e01b815260040161032e929190611052565b6020604051808303816000875af115801561034d573d6000803e3d6000fd5b505050506040513d601f19601f820116820180604052508101906103719190611090565b507f85eae98551d810f4262f4597584f04643b4d9577dbff3da49b8fdf12ec7eca1982826040516103a39291906110bd565b60405180910390a15050565b6103b7610897565b73ffffffffffffffffffffffffffffffffffffffff166103d5610590565b73ffffffffffffffffffffffffffffffffffffffff161461042b576040517f08c379a000000000000000000000000000000000000000000000000000000000815260040161042290610f5a565b60405180910390fd5b80600160006101000a81548173ffffffffffffffffffffffffffffffffffffffff021916908373ffffffffffffffffffffffffffffffffffffffff16021790555050565b610477610897565b73ffffffffffffffffffffffffffffffffffffffff16610495610590565b73ffffffffffffffffffffffffffffffffffffffff16146104eb576040517f08c379a00000000000000000000000000000000000000000000000000000000081526004016104e290610f5a565b60405180910390fd5b6104f560006108b2565b565b6104ff610897565b73ffffffffffffffffffffffffffffffffffffffff1661051d610590565b73ffffffffffffffffffffffffffffffffffffffff1614610573576040517f08c379a000000000000000000000000000000000000000000000000000000000815260040161056a90610f5a565b60405180910390fd5b80600360006101000a81548160ff02191690831515021790555050565b60008060009054906101000a900473ffffffffffffffffffffffffffffffffffffffff16905090565b600360009054906101000a900460ff1681565b80600160009054906101000a900473ffffffffffffffffffffffffffffffffffffffff1673ffffffffffffffffffffffffffffffffffffffff166370a08231336040518263ffffffff1660e01b81526004016106289190610e34565b602060405180830381865afa158015610645573d6000803e3d6000fd5b505050506040513d601f19601f8201168201806040525081019061066991906110fb565b10156106aa576040517f08c379a00000000000000000000000000000000000000000000000000000000081526004016106a190611174565b60405180910390fd5b6106d8600160009054906101000a900473ffffffffffffffffffffffffffffffffffffffff16333084610976565b7fb391639a04466a30868f922cde0b9ad39c2df38812bb39e096b665038a12019281336040516107099291906110bd565b60405180910390a150565b61071c610897565b73ffffffffffffffffffffffffffffffffffffffff1661073a610590565b73ffffffffffffffffffffffffffffffffffffffff1614610790576040517f08c379a000000000000000000000000000000000000000000000000000000000815260040161078790610f5a565b60405180910390fd5b8060028190555050565b6107a2610897565b73ffffffffffffffffffffffffffffffffffffffff166107c0610590565b73ffffffffffffffffffffffffffffffffffffffff1614610816576040517f08c379a000000000000000000000000000000000000000000000000000000000815260040161080d90610f5a565b60405180910390fd5b600073ffffffffffffffffffffffffffffffffffffffff168173ffffffffffffffffffffffffffffffffffffffff1603610885576040517f08c379a000000000000000000000000000000000000000000000000000000000815260040161087c90611206565b60405180910390fd5b61088e816108b2565b50565b60025481565b600033905090565b600080823b905060008111915050919050565b60008060009054906101000a900473ffffffffffffffffffffffffffffffffffffffff169050816000806101000a81548173ffffffffffffffffffffffffffffffffffffffff021916908373ffffffffffffffffffffffffffffffffffffffff1602179055508173ffffffffffffffffffffffffffffffffffffffff168173ffffffffffffffffffffffffffffffffffffffff167f8be0079c531659141344cd1fd0a4f28419497f9722a3daafe3b4186f6b6457e060405160405180910390a35050565b6109f9846323b872dd60e01b85858560405160240161099793929190611226565b604051602081830303815290604052907bffffffffffffffffffffffffffffffffffffffffffffffffffffffff19166020820180517bffffffffffffffffffffffffffffffffffffffffffffffffffffffff83818316178352505050506109ff565b50505050565b6000610a61826040518060400160405280602081526020017f5361666545524332303a206c6f772d6c6576656c2063616c6c206661696c65648152508573ffffffffffffffffffffffffffffffffffffffff16610ac69092919063ffffffff16565b9050600081511115610ac15780806020019051810190610a819190611090565b610ac0576040517f08c379a0000000000000000000000000000000000000000000000000000000008152600401610ab7906112cf565b60405180910390fd5b5b505050565b6060610ad58484600085610ade565b90509392505050565b606082471015610b23576040517f08c379a0000000000000000000000000000000000000000000000000000000008152600401610b1a90611361565b60405180910390fd5b610b2c85610bf2565b610b6b576040517f08c379a0000000000000000000000000000000000000000000000000000000008152600401610b62906113cd565b60405180910390fd5b6000808673ffffffffffffffffffffffffffffffffffffffff168587604051610b94919061145e565b60006040518083038185875af1925050503d8060008114610bd1576040519150601f19603f3d011682016040523d82523d6000602084013e610bd6565b606091505b5091509150610be6828286610c15565b92505050949350505050565b6000808273ffffffffffffffffffffffffffffffffffffffff163b119050919050565b60608315610c2557829050610c75565b600083511115610c385782518084602001fd5b816040517f08c379a0000000000000000000000000000000000000000000000000000000008152600401610c6c91906114ca565b60405180910390fd5b9392505050565b600080fd5b6000819050919050565b610c9481610c81565b8114610c9f57600080fd5b50565b600081359050610cb181610c8b565b92915050565b600073ffffffffffffffffffffffffffffffffffffffff82169050919050565b6000610ce282610cb7565b9050919050565b610cf281610cd7565b8114610cfd57600080fd5b50565b600081359050610d0f81610ce9565b92915050565b60008060408385031215610d2c57610d2b610c7c565b5b6000610d3a85828601610ca2565b9250506020610d4b85828601610d00565b9150509250929050565b6000610d6082610cd7565b9050919050565b610d7081610d55565b8114610d7b57600080fd5b50565b600081359050610d8d81610d67565b92915050565b600060208284031215610da957610da8610c7c565b5b6000610db784828501610d7e565b91505092915050565b60008115159050919050565b610dd581610dc0565b8114610de057600080fd5b50565b600081359050610df281610dcc565b92915050565b600060208284031215610e0e57610e0d610c7c565b5b6000610e1c84828501610de3565b91505092915050565b610e2e81610cd7565b82525050565b6000602082019050610e496000830184610e25565b92915050565b610e5881610dc0565b82525050565b6000602082019050610e736000830184610e4f565b92915050565b600060208284031215610e8f57610e8e610c7c565b5b6000610e9d84828501610ca2565b91505092915050565b600060208284031215610ebc57610ebb610c7c565b5b6000610eca84828501610d00565b91505092915050565b610edc81610c81565b82525050565b6000602082019050610ef76000830184610ed3565b92915050565b600082825260208201905092915050565b7f4f776e61626c653a2063616c6c6572206973206e6f7420746865206f776e6572600082015250565b6000610f44602083610efd565b9150610f4f82610f0e565b602082019050919050565b60006020820190508181036000830152610f7381610f37565b9050919050565b7f5769746864726177206973206e6f7420617661696c61626c6500000000000000600082015250565b6000610fb0601983610efd565b9150610fbb82610f7a565b602082019050919050565b60006020820190508181036000830152610fdf81610fa3565b9050919050565b7f457863656564206d6178696d756d20616d6f756e740000000000000000000000600082015250565b600061101c601583610efd565b915061102782610fe6565b602082019050919050565b6000602082019050818103600083015261104b8161100f565b9050919050565b60006040820190506110676000830185610e25565b6110746020830184610ed3565b9392505050565b60008151905061108a81610dcc565b92915050565b6000602082840312156110a6576110a5610c7c565b5b60006110b48482850161107b565b91505092915050565b60006040820190506110d26000830185610ed3565b6110df6020830184610e25565b9392505050565b6000815190506110f581610c8b565b92915050565b60006020828403121561111157611110610c7c565b5b600061111f848285016110e6565b91505092915050565b7f496e73756666696369656e74206163636f756e742062616c616e636500000000600082015250565b600061115e601c83610efd565b915061116982611128565b602082019050919050565b6000602082019050818103600083015261118d81611151565b9050919050565b7f4f776e61626c653a206e6577206f776e657220697320746865207a65726f206160008201527f6464726573730000000000000000000000000000000000000000000000000000602082015250565b60006111f0602683610efd565b91506111fb82611194565b604082019050919050565b6000602082019050818103600083015261121f816111e3565b9050919050565b600060608201905061123b6000830186610e25565b6112486020830185610e25565b6112556040830184610ed3565b949350505050565b7f5361666545524332303a204552433230206f7065726174696f6e20646964206e60008201527f6f74207375636365656400000000000000000000000000000000000000000000602082015250565b60006112b9602a83610efd565b91506112c48261125d565b604082019050919050565b600060208201905081810360008301526112e8816112ac565b9050919050565b7f416464726573733a20696e73756666696369656e742062616c616e636520666f60008201527f722063616c6c0000000000000000000000000000000000000000000000000000602082015250565b600061134b602683610efd565b9150611356826112ef565b604082019050919050565b6000602082019050818103600083015261137a8161133e565b9050919050565b7f416464726573733a2063616c6c20746f206e6f6e2d636f6e7472616374000000600082015250565b60006113b7601d83610efd565b91506113c282611381565b602082019050919050565b600060208201905081810360008301526113e6816113aa565b9050919050565b600081519050919050565b600081905092915050565b60005b83811015611421578082015181840152602081019050611406565b60008484015250505050565b6000611438826113ed565b61144281856113f8565b9350611452818560208601611403565b80840191505092915050565b600061146a828461142d565b915081905092915050565b600081519050919050565b6000601f19601f8301169050919050565b600061149c82611475565b6114a68185610efd565b93506114b6818560208601611403565b6114bf81611480565b840191505092915050565b600060208201905081810360008301526114e48184611491565b90509291505056fea2646970667358221220b39ce1b3cfe1431f4e0f2da25dcc6579ab7edb42f0766d439bde35aabea73a9364736f6c63430008110033","opcodes":"PUSH1 0x80 PUSH1 0x40 MSTORE CALLVALUE DUP1 ISZERO PUSH2 0x10 JUMPI PUSH1 0x0 DUP1 REVERT JUMPDEST POP PUSH2 0x2D PUSH2 0x22 PUSH2 0x32 PUSH1 0x20 SHL PUSH1 0x20 SHR JUMP JUMPDEST PUSH2 0x3A PUSH1 0x20 SHL PUSH1 0x20 SHR JUMP JUMPDEST PUSH2 0xFE JUMP JUMPDEST PUSH1 0x0 CALLER SWAP1 POP SWAP1 JUMP JUMPDEST PUSH1 0x0 DUP1 PUSH1 0x0 SWAP1 SLOAD SWAP1 PUSH2 0x100 EXP SWAP1 DIV PUSH20 0xFFFFFFFFFFFFFFFFFFFFFFFFFFFFFFFFFFFFFFFF AND SWAP1 POP DUP2 PUSH1 0x0 DUP1 PUSH2 0x100 EXP DUP2 SLOAD DUP2 PUSH20 0xFFFFFFFFFFFFFFFFFFFFFFFFFFFFFFFFFFFFFFFF MUL NOT AND SWAP1 DUP4 PUSH20 0xFFFFFFFFFFFFFFFFFFFFFFFFFFFFFFFFFFFFFFFF AND MUL OR SWAP1 SSTORE POP DUP2 PUSH20 0xFFFFFFFFFFFFFFFFFFFFFFFFFFFFFFFFFFFFFFFF AND DUP2 PUSH20 0xFFFFFFFFFFFFFFFFFFFFFFFFFFFFFFFFFFFFFFFF AND PUSH32 0x8BE0079C531659141344CD1FD0A4F28419497F9722A3DAAFE3B4186F6B6457E0 PUSH1 0x40 MLOAD PUSH1 0x40 MLOAD DUP1 SWAP2 SUB SWAP1 LOG3 POP POP JUMP JUMPDEST PUSH2 0x1522 DUP1 PUSH2 0x10D PUSH1 0x0 CODECOPY PUSH1 0x0 RETURN INVALID PUSH1 0x80 PUSH1 0x40 MSTORE CALLVALUE DUP1 ISZERO PUSH2 0x10 JUMPI PUSH1 0x0 DUP1 REVERT JUMPDEST POP PUSH1 0x4 CALLDATASIZE LT PUSH2 0x9D JUMPI PUSH1 0x0 CALLDATALOAD PUSH1 0xE0 SHR DUP1 PUSH4 0xB5B68AFE GT PUSH2 0x66 JUMPI DUP1 PUSH4 0xB5B68AFE EQ PUSH2 0x11E JUMPI DUP1 PUSH4 0xB6B55F25 EQ PUSH2 0x13C JUMPI DUP1 PUSH4 0xDF74E028 EQ PUSH2 0x158 JUMPI DUP1 PUSH4 0xF2FDE38B EQ PUSH2 0x174 JUMPI DUP1 PUSH4 0xF516440C EQ PUSH2 0x190 JUMPI PUSH2 0x9D JUMP JUMPDEST DUP1 PUSH3 0xF714CE EQ PUSH2 0xA2 JUMPI DUP1 PUSH4 0x144FA6D7 EQ PUSH2 0xBE JUMPI DUP1 PUSH4 0x715018A6 EQ PUSH2 0xDA JUMPI DUP1 PUSH4 0x827A560B EQ PUSH2 0xE4 JUMPI DUP1 PUSH4 0x8DA5CB5B EQ PUSH2 0x100 JUMPI JUMPDEST PUSH1 0x0 DUP1 REVERT JUMPDEST PUSH2 0xBC PUSH1 0x4 DUP1 CALLDATASIZE SUB DUP2 ADD SWAP1 PUSH2 0xB7 SWAP2 SWAP1 PUSH2 0xD15 JUMP JUMPDEST PUSH2 0x1AE JUMP JUMPDEST STOP JUMPDEST PUSH2 0xD8 PUSH1 0x4 DUP1 CALLDATASIZE SUB DUP2 ADD SWAP1 PUSH2 0xD3 SWAP2 SWAP1 PUSH2 0xD93 JUMP JUMPDEST PUSH2 0x3AF JUMP JUMPDEST STOP JUMPDEST PUSH2 0xE2 PUSH2 0x46F JUMP JUMPDEST STOP JUMPDEST PUSH2 0xFE PUSH1 0x4 DUP1 CALLDATASIZE SUB DUP2 ADD SWAP1 PUSH2 0xF9 SWAP2 SWAP1 PUSH2 0xDF8 JUMP JUMPDEST PUSH2 0x4F7 JUMP JUMPDEST STOP JUMPDEST PUSH2 0x108 PUSH2 0x590 JUMP JUMPDEST PUSH1 0x40 MLOAD PUSH2 0x115 SWAP2 SWAP1 PUSH2 0xE34 JUMP JUMPDEST PUSH1 0x40 MLOAD DUP1 SWAP2 SUB SWAP1 RETURN JUMPDEST PUSH2 0x126 PUSH2 0x5B9 JUMP JUMPDEST PUSH1 0x40 MLOAD PUSH2 0x133 SWAP2 SWAP1 PUSH2 0xE5E JUMP JUMPDEST PUSH1 0x40 MLOAD DUP1 SWAP2 SUB SWAP1 RETURN JUMPDEST PUSH2 0x156 PUSH1 0x4 DUP1 CALLDATASIZE SUB DUP2 ADD SWAP1 PUSH2 0x151 SWAP2 SWAP1 PUSH2 0xE79 JUMP JUMPDEST PUSH2 0x5CC JUMP JUMPDEST STOP JUMPDEST PUSH2 0x172 PUSH1 0x4 DUP1 CALLDATASIZE SUB DUP2 ADD SWAP1 PUSH2 0x16D SWAP2 SWAP1 PUSH2 0xE79 JUMP JUMPDEST PUSH2 0x714 JUMP JUMPDEST STOP JUMPDEST PUSH2 0x18E PUSH1 0x4 DUP1 CALLDATASIZE SUB DUP2 ADD SWAP1 PUSH2 0x189 SWAP2 SWAP1 PUSH2 0xEA6 JUMP JUMPDEST PUSH2 0x79A JUMP JUMPDEST STOP JUMPDEST PUSH2 0x198 PUSH2 0x891 JUMP JUMPDEST PUSH1 0x40 MLOAD PUSH2 0x1A5 SWAP2 SWAP1 PUSH2 0xEE2 JUMP JUMPDEST PUSH1 0x40 MLOAD DUP1 SWAP2 SUB SWAP1 RETURN JUMPDEST PUSH2 0x1B6 PUSH2 0x897 JUMP JUMPDEST PUSH20 0xFFFFFFFFFFFFFFFFFFFFFFFFFFFFFFFFFFFFFFFF AND PUSH2 0x1D4 PUSH2 0x590 JUMP JUMPDEST PUSH20 0xFFFFFFFFFFFFFFFFFFFFFFFFFFFFFFFFFFFFFFFF AND EQ PUSH2 0x22A JUMPI PUSH1 0x40 MLOAD PUSH32 0x8C379A000000000000000000000000000000000000000000000000000000000 DUP2 MSTORE PUSH1 0x4 ADD PUSH2 0x221 SWAP1 PUSH2 0xF5A JUMP JUMPDEST PUSH1 0x40 MLOAD DUP1 SWAP2 SUB SWAP1 REVERT JUMPDEST PUSH2 0x233 CALLER PUSH2 0x89F JUMP JUMPDEST ISZERO PUSH2 0x23D JUMPI PUSH1 0x0 DUP1 REVERT JUMPDEST PUSH1 0x3 PUSH1 0x0 SWAP1 SLOAD SWAP1 PUSH2 0x100 EXP SWAP1 DIV PUSH1 0xFF AND PUSH2 0x28C JUMPI PUSH1 0x40 MLOAD PUSH32 0x8C379A000000000000000000000000000000000000000000000000000000000 DUP2 MSTORE PUSH1 0x4 ADD PUSH2 0x283 SWAP1 PUSH2 0xFC6 JUMP JUMPDEST PUSH1 0x40 MLOAD DUP1 SWAP2 SUB SWAP1 REVERT JUMPDEST PUSH1 0x2 SLOAD DUP3 GT ISZERO PUSH2 0x2D1 JUMPI PUSH1 0x40 MLOAD PUSH32 0x8C379A000000000000000000000000000000000000000000000000000000000 DUP2 MSTORE PUSH1 0x4 ADD PUSH2 0x2C8 SWAP1 PUSH2 0x1032 JUMP JUMPDEST PUSH1 0x40 MLOAD DUP1 SWAP2 SUB SWAP1 REVERT JUMPDEST PUSH1 0x1 PUSH1 0x0 SWAP1 SLOAD SWAP1 PUSH2 0x100 EXP SWAP1 DIV PUSH20 0xFFFFFFFFFFFFFFFFFFFFFFFFFFFFFFFFFFFFFFFF AND PUSH20 0xFFFFFFFFFFFFFFFFFFFFFFFFFFFFFFFFFFFFFFFF AND PUSH4 0xA9059CBB DUP3 DUP5 PUSH1 0x40 MLOAD DUP4 PUSH4 0xFFFFFFFF AND PUSH1 0xE0 SHL DUP2 MSTORE PUSH1 0x4 ADD PUSH2 0x32E SWAP3 SWAP2 SWAP1 PUSH2 0x1052 JUMP JUMPDEST PUSH1 0x20 PUSH1 0x40 MLOAD DUP1 DUP4 SUB DUP2 PUSH1 0x0 DUP8 GAS CALL ISZERO DUP1 ISZERO PUSH2 0x34D JUMPI RETURNDATASIZE PUSH1 0x0 DUP1 RETURNDATACOPY RETURNDATASIZE PUSH1 0x0 REVERT JUMPDEST POP POP POP POP PUSH1 0x40 MLOAD RETURNDATASIZE PUSH1 0x1F NOT PUSH1 0x1F DUP3 ADD AND DUP3 ADD DUP1 PUSH1 0x40 MSTORE POP DUP2 ADD SWAP1 PUSH2 0x371 SWAP2 SWAP1 PUSH2 0x1090 JUMP JUMPDEST POP PUSH32 0x85EAE98551D810F4262F4597584F04643B4D9577DBFF3DA49B8FDF12EC7ECA19 DUP3 DUP3 PUSH1 0x40 MLOAD PUSH2 0x3A3 SWAP3 SWAP2 SWAP1 PUSH2 0x10BD JUMP JUMPDEST PUSH1 0x40 MLOAD DUP1 SWAP2 SUB SWAP1 LOG1 POP POP JUMP JUMPDEST PUSH2 0x3B7 PUSH2 0x897 JUMP JUMPDEST PUSH20 0xFFFFFFFFFFFFFFFFFFFFFFFFFFFFFFFFFFFFFFFF AND PUSH2 0x3D5 PUSH2 0x590 JUMP JUMPDEST PUSH20 0xFFFFFFFFFFFFFFFFFFFFFFFFFFFFFFFFFFFFFFFF AND EQ PUSH2 0x42B JUMPI PUSH1 0x40 MLOAD PUSH32 0x8C379A000000000000000000000000000000000000000000000000000000000 DUP2 MSTORE PUSH1 0x4 ADD PUSH2 0x422 SWAP1 PUSH2 0xF5A JUMP JUMPDEST PUSH1 0x40 MLOAD DUP1 SWAP2 SUB SWAP1 REVERT JUMPDEST DUP1 PUSH1 0x1 PUSH1 0x0 PUSH2 0x100 EXP DUP2 SLOAD DUP2 PUSH20 0xFFFFFFFFFFFFFFFFFFFFFFFFFFFFFFFFFFFFFFFF MUL NOT AND SWAP1 DUP4 PUSH20 0xFFFFFFFFFFFFFFFFFFFFFFFFFFFFFFFFFFFFFFFF AND MUL OR SWAP1 SSTORE POP POP JUMP JUMPDEST PUSH2 0x477 PUSH2 0x897 JUMP JUMPDEST PUSH20 0xFFFFFFFFFFFFFFFFFFFFFFFFFFFFFFFFFFFFFFFF AND PUSH2 0x495 PUSH2 0x590 JUMP JUMPDEST PUSH20 0xFFFFFFFFFFFFFFFFFFFFFFFFFFFFFFFFFFFFFFFF AND EQ PUSH2 0x4EB JUMPI PUSH1 0x40 MLOAD PUSH32 0x8C379A000000000000000000000000000000000000000000000000000000000 DUP2 MSTORE PUSH1 0x4 ADD PUSH2 0x4E2 SWAP1 PUSH2 0xF5A JUMP JUMPDEST PUSH1 0x40 MLOAD DUP1 SWAP2 SUB SWAP1 REVERT JUMPDEST PUSH2 0x4F5 PUSH1 0x0 PUSH2 0x8B2 JUMP JUMPDEST JUMP JUMPDEST PUSH2 0x4FF PUSH2 0x897 JUMP JUMPDEST PUSH20 0xFFFFFFFFFFFFFFFFFFFFFFFFFFFFFFFFFFFFFFFF AND PUSH2 0x51D PUSH2 0x590 JUMP JUMPDEST PUSH20 0xFFFFFFFFFFFFFFFFFFFFFFFFFFFFFFFFFFFFFFFF AND EQ PUSH2 0x573 JUMPI PUSH1 0x40 MLOAD PUSH32 0x8C379A000000000000000000000000000000000000000000000000000000000 DUP2 MSTORE PUSH1 0x4 ADD PUSH2 0x56A SWAP1 PUSH2 0xF5A JUMP JUMPDEST PUSH1 0x40 MLOAD DUP1 SWAP2 SUB SWAP1 REVERT JUMPDEST DUP1 PUSH1 0x3 PUSH1 0x0 PUSH2 0x100 EXP DUP2 SLOAD DUP2 PUSH1 0xFF MUL NOT AND SWAP1 DUP4 ISZERO ISZERO MUL OR SWAP1 SSTORE POP POP JUMP JUMPDEST PUSH1 0x0 DUP1 PUSH1 0x0 SWAP1 SLOAD SWAP1 PUSH2 0x100 EXP SWAP1 DIV PUSH20 0xFFFFFFFFFFFFFFFFFFFFFFFFFFFFFFFFFFFFFFFF AND SWAP1 POP SWAP1 JUMP JUMPDEST PUSH1 0x3 PUSH1 0x0 SWAP1 SLOAD SWAP1 PUSH2 0x100 EXP SWAP1 DIV PUSH1 0xFF AND DUP2 JUMP JUMPDEST DUP1 PUSH1 0x1 PUSH1 0x0 SWAP1 SLOAD SWAP1 PUSH2 0x100 EXP SWAP1 DIV PUSH20 0xFFFFFFFFFFFFFFFFFFFFFFFFFFFFFFFFFFFFFFFF AND PUSH20 0xFFFFFFFFFFFFFFFFFFFFFFFFFFFFFFFFFFFFFFFF AND PUSH4 0x70A08231 CALLER PUSH1 0x40 MLOAD DUP3 PUSH4 0xFFFFFFFF AND PUSH1 0xE0 SHL DUP2 MSTORE PUSH1 0x4 ADD PUSH2 0x628 SWAP2 SWAP1 PUSH2 0xE34 JUMP JUMPDEST PUSH1 0x20 PUSH1 0x40 MLOAD DUP1 DUP4 SUB DUP2 DUP7 GAS STATICCALL ISZERO DUP1 ISZERO PUSH2 0x645 JUMPI RETURNDATASIZE PUSH1 0x0 DUP1 RETURNDATACOPY RETURNDATASIZE PUSH1 0x0 REVERT JUMPDEST POP POP POP POP PUSH1 0x40 MLOAD RETURNDATASIZE PUSH1 0x1F NOT PUSH1 0x1F DUP3 ADD AND DUP3 ADD DUP1 PUSH1 0x40 MSTORE POP DUP2 ADD SWAP1 PUSH2 0x669 SWAP2 SWAP1 PUSH2 0x10FB JUMP JUMPDEST LT ISZERO PUSH2 0x6AA JUMPI PUSH1 0x40 MLOAD PUSH32 0x8C379A000000000000000000000000000000000000000000000000000000000 DUP2 MSTORE PUSH1 0x4 ADD PUSH2 0x6A1 SWAP1 PUSH2 0x1174 JUMP JUMPDEST PUSH1 0x40 MLOAD DUP1 SWAP2 SUB SWAP1 REVERT JUMPDEST PUSH2 0x6D8 PUSH1 0x1 PUSH1 0x0 SWAP1 SLOAD SWAP1 PUSH2 0x100 EXP SWAP1 DIV PUSH20 0xFFFFFFFFFFFFFFFFFFFFFFFFFFFFFFFFFFFFFFFF AND CALLER ADDRESS DUP5 PUSH2 0x976 JUMP JUMPDEST PUSH32 0xB391639A04466A30868F922CDE0B9AD39C2DF38812BB39E096B665038A120192 DUP2 CALLER PUSH1 0x40 MLOAD PUSH2 0x709 SWAP3 SWAP2 SWAP1 PUSH2 0x10BD JUMP JUMPDEST PUSH1 0x40 MLOAD DUP1 SWAP2 SUB SWAP1 LOG1 POP JUMP JUMPDEST PUSH2 0x71C PUSH2 0x897 JUMP JUMPDEST PUSH20 0xFFFFFFFFFFFFFFFFFFFFFFFFFFFFFFFFFFFFFFFF AND PUSH2 0x73A PUSH2 0x590 JUMP JUMPDEST PUSH20 0xFFFFFFFFFFFFFFFFFFFFFFFFFFFFFFFFFFFFFFFF AND EQ PUSH2 0x790 JUMPI PUSH1 0x40 MLOAD PUSH32 0x8C379A000000000000000000000000000000000000000000000000000000000 DUP2 MSTORE PUSH1 0x4 ADD PUSH2 0x787 SWAP1 PUSH2 0xF5A JUMP JUMPDEST PUSH1 0x40 MLOAD DUP1 SWAP2 SUB SWAP1 REVERT JUMPDEST DUP1 PUSH1 0x2 DUP2 SWAP1 SSTORE POP POP JUMP JUMPDEST PUSH2 0x7A2 PUSH2 0x897 JUMP JUMPDEST PUSH20 0xFFFFFFFFFFFFFFFFFFFFFFFFFFFFFFFFFFFFFFFF AND PUSH2 0x7C0 PUSH2 0x590 JUMP JUMPDEST PUSH20 0xFFFFFFFFFFFFFFFFFFFFFFFFFFFFFFFFFFFFFFFF AND EQ PUSH2 0x816 JUMPI PUSH1 0x40 MLOAD PUSH32 0x8C379A000000000000000000000000000000000000000000000000000000000 DUP2 MSTORE PUSH1 0x4 ADD PUSH2 0x80D SWAP1 PUSH2 0xF5A JUMP JUMPDEST PUSH1 0x40 MLOAD DUP1 SWAP2 SUB SWAP1 REVERT JUMPDEST PUSH1 0x0 PUSH20 0xFFFFFFFFFFFFFFFFFFFFFFFFFFFFFFFFFFFFFFFF AND DUP2 PUSH20 0xFFFFFFFFFFFFFFFFFFFFFFFFFFFFFFFFFFFFFFFF AND SUB PUSH2 0x885 JUMPI PUSH1 0x40 MLOAD PUSH32 0x8C379A000000000000000000000000000000000000000000000000000000000 DUP2 MSTORE PUSH1 0x4 ADD PUSH2 0x87C SWAP1 PUSH2 0x1206 JUMP JUMPDEST PUSH1 0x40 MLOAD DUP1 SWAP2 SUB SWAP1 REVERT JUMPDEST PUSH2 0x88E DUP2 PUSH2 0x8B2 JUMP JUMPDEST POP JUMP JUMPDEST PUSH1 0x2 SLOAD DUP2 JUMP JUMPDEST PUSH1 0x0 CALLER SWAP1 POP SWAP1 JUMP JUMPDEST PUSH1 0x0 DUP1 DUP3 EXTCODESIZE SWAP1 POP PUSH1 0x0 DUP2 GT SWAP2 POP POP SWAP2 SWAP1 POP JUMP JUMPDEST PUSH1 0x0 DUP1 PUSH1 0x0 SWAP1 SLOAD SWAP1 PUSH2 0x100 EXP SWAP1 DIV PUSH20 0xFFFFFFFFFFFFFFFFFFFFFFFFFFFFFFFFFFFFFFFF AND SWAP1 POP DUP2 PUSH1 0x0 DUP1 PUSH2 0x100 EXP DUP2 SLOAD DUP2 PUSH20 0xFFFFFFFFFFFFFFFFFFFFFFFFFFFFFFFFFFFFFFFF MUL NOT AND SWAP1 DUP4 PUSH20 0xFFFFFFFFFFFFFFFFFFFFFFFFFFFFFFFFFFFFFFFF AND MUL OR SWAP1 SSTORE POP DUP2 PUSH20 0xFFFFFFFFFFFFFFFFFFFFFFFFFFFFFFFFFFFFFFFF AND DUP2 PUSH20 0xFFFFFFFFFFFFFFFFFFFFFFFFFFFFFFFFFFFFFFFF AND PUSH32 0x8BE0079C531659141344CD1FD0A4F28419497F9722A3DAAFE3B4186F6B6457E0 PUSH1 0x40 MLOAD PUSH1 0x40 MLOAD DUP1 SWAP2 SUB SWAP1 LOG3 POP POP JUMP JUMPDEST PUSH2 0x9F9 DUP5 PUSH4 0x23B872DD PUSH1 0xE0 SHL DUP6 DUP6 DUP6 PUSH1 0x40 MLOAD PUSH1 0x24 ADD PUSH2 0x997 SWAP4 SWAP3 SWAP2 SWAP1 PUSH2 0x1226 JUMP JUMPDEST PUSH1 0x40 MLOAD PUSH1 0x20 DUP2 DUP4 SUB SUB DUP2 MSTORE SWAP1 PUSH1 0x40 MSTORE SWAP1 PUSH28 0xFFFFFFFFFFFFFFFFFFFFFFFFFFFFFFFFFFFFFFFFFFFFFFFFFFFFFFFF NOT AND PUSH1 0x20 DUP3 ADD DUP1 MLOAD PUSH28 0xFFFFFFFFFFFFFFFFFFFFFFFFFFFFFFFFFFFFFFFFFFFFFFFFFFFFFFFF DUP4 DUP2 DUP4 AND OR DUP4 MSTORE POP POP POP POP PUSH2 0x9FF JUMP JUMPDEST POP POP POP POP JUMP JUMPDEST PUSH1 0x0 PUSH2 0xA61 DUP3 PUSH1 0x40 MLOAD DUP1 PUSH1 0x40 ADD PUSH1 0x40 MSTORE DUP1 PUSH1 0x20 DUP2 MSTORE PUSH1 0x20 ADD PUSH32 0x5361666545524332303A206C6F772D6C6576656C2063616C6C206661696C6564 DUP2 MSTORE POP DUP6 PUSH20 0xFFFFFFFFFFFFFFFFFFFFFFFFFFFFFFFFFFFFFFFF AND PUSH2 0xAC6 SWAP1 SWAP3 SWAP2 SWAP1 PUSH4 0xFFFFFFFF AND JUMP JUMPDEST SWAP1 POP PUSH1 0x0 DUP2 MLOAD GT ISZERO PUSH2 0xAC1 JUMPI DUP1 DUP1 PUSH1 0x20 ADD SWAP1 MLOAD DUP2 ADD SWAP1 PUSH2 0xA81 SWAP2 SWAP1 PUSH2 0x1090 JUMP JUMPDEST PUSH2 0xAC0 JUMPI PUSH1 0x40 MLOAD PUSH32 0x8C379A000000000000000000000000000000000000000000000000000000000 DUP2 MSTORE PUSH1 0x4 ADD PUSH2 0xAB7 SWAP1 PUSH2 0x12CF JUMP JUMPDEST PUSH1 0x40 MLOAD DUP1 SWAP2 SUB SWAP1 REVERT JUMPDEST JUMPDEST POP POP POP JUMP JUMPDEST PUSH1 0x60 PUSH2 0xAD5 DUP5 DUP5 PUSH1 0x0 DUP6 PUSH2 0xADE JUMP JUMPDEST SWAP1 POP SWAP4 SWAP3 POP POP POP JUMP JUMPDEST PUSH1 0x60 DUP3 SELFBALANCE LT ISZERO PUSH2 0xB23 JUMPI PUSH1 0x40 MLOAD PUSH32 0x8C379A000000000000000000000000000000000000000000000000000000000 DUP2 MSTORE PUSH1 0x4 ADD PUSH2 0xB1A SWAP1 PUSH2 0x1361 JUMP JUMPDEST PUSH1 0x40 MLOAD DUP1 SWAP2 SUB SWAP1 REVERT JUMPDEST PUSH2 0xB2C DUP6 PUSH2 0xBF2 JUMP JUMPDEST PUSH2 0xB6B JUMPI PUSH1 0x40 MLOAD PUSH32 0x8C379A000000000000000000000000000000000000000000000000000000000 DUP2 MSTORE PUSH1 0x4 ADD PUSH2 0xB62 SWAP1 PUSH2 0x13CD JUMP JUMPDEST PUSH1 0x40 MLOAD DUP1 SWAP2 SUB SWAP1 REVERT JUMPDEST PUSH1 0x0 DUP1 DUP7 PUSH20 0xFFFFFFFFFFFFFFFFFFFFFFFFFFFFFFFFFFFFFFFF AND DUP6 DUP8 PUSH1 0x40 MLOAD PUSH2 0xB94 SWAP2 SWAP1 PUSH2 0x145E JUMP JUMPDEST PUSH1 0x0 PUSH1 0x40 MLOAD DUP1 DUP4 SUB DUP2 DUP6 DUP8 GAS CALL SWAP3 POP POP POP RETURNDATASIZE DUP1 PUSH1 0x0 DUP2 EQ PUSH2 0xBD1 JUMPI PUSH1 0x40 MLOAD SWAP2 POP PUSH1 0x1F NOT PUSH1 0x3F RETURNDATASIZE ADD AND DUP3 ADD PUSH1 0x40 MSTORE RETURNDATASIZE DUP3 MSTORE RETURNDATASIZE PUSH1 0x0 PUSH1 0x20 DUP5 ADD RETURNDATACOPY PUSH2 0xBD6 JUMP JUMPDEST PUSH1 0x60 SWAP2 POP JUMPDEST POP SWAP2 POP SWAP2 POP PUSH2 0xBE6 DUP3 DUP3 DUP7 PUSH2 0xC15 JUMP JUMPDEST SWAP3 POP POP POP SWAP5 SWAP4 POP POP POP POP JUMP JUMPDEST PUSH1 0x0 DUP1 DUP3 PUSH20 0xFFFFFFFFFFFFFFFFFFFFFFFFFFFFFFFFFFFFFFFF AND EXTCODESIZE GT SWAP1 POP SWAP2 SWAP1 POP JUMP JUMPDEST PUSH1 0x60 DUP4 ISZERO PUSH2 0xC25 JUMPI DUP3 SWAP1 POP PUSH2 0xC75 JUMP JUMPDEST PUSH1 0x0 DUP4 MLOAD GT ISZERO PUSH2 0xC38 JUMPI DUP3 MLOAD DUP1 DUP5 PUSH1 0x20 ADD REVERT JUMPDEST DUP2 PUSH1 0x40 MLOAD PUSH32 0x8C379A000000000000000000000000000000000000000000000000000000000 DUP2 MSTORE PUSH1 0x4 ADD PUSH2 0xC6C SWAP2 SWAP1 PUSH2 0x14CA JUMP JUMPDEST PUSH1 0x40 MLOAD DUP1 SWAP2 SUB SWAP1 REVERT JUMPDEST SWAP4 SWAP3 POP POP POP JUMP JUMPDEST PUSH1 0x0 DUP1 REVERT JUMPDEST PUSH1 0x0 DUP2 SWAP1 POP SWAP2 SWAP1 POP JUMP JUMPDEST PUSH2 0xC94 DUP2 PUSH2 0xC81 JUMP JUMPDEST DUP2 EQ PUSH2 0xC9F JUMPI PUSH1 0x0 DUP1 REVERT JUMPDEST POP JUMP JUMPDEST PUSH1 0x0 DUP2 CALLDATALOAD SWAP1 POP PUSH2 0xCB1 DUP2 PUSH2 0xC8B JUMP JUMPDEST SWAP3 SWAP2 POP POP JUMP JUMPDEST PUSH1 0x0 PUSH20 0xFFFFFFFFFFFFFFFFFFFFFFFFFFFFFFFFFFFFFFFF DUP3 AND SWAP1 POP SWAP2 SWAP1 POP JUMP JUMPDEST PUSH1 0x0 PUSH2 0xCE2 DUP3 PUSH2 0xCB7 JUMP JUMPDEST SWAP1 POP SWAP2 SWAP1 POP JUMP JUMPDEST PUSH2 0xCF2 DUP2 PUSH2 0xCD7 JUMP JUMPDEST DUP2 EQ PUSH2 0xCFD JUMPI PUSH1 0x0 DUP1 REVERT JUMPDEST POP JUMP JUMPDEST PUSH1 0x0 DUP2 CALLDATALOAD SWAP1 POP PUSH2 0xD0F DUP2 PUSH2 0xCE9 JUMP JUMPDEST SWAP3 SWAP2 POP POP JUMP JUMPDEST PUSH1 0x0 DUP1 PUSH1 0x40 DUP4 DUP6 SUB SLT ISZERO PUSH2 0xD2C JUMPI PUSH2 0xD2B PUSH2 0xC7C JUMP JUMPDEST JUMPDEST PUSH1 0x0 PUSH2 0xD3A DUP6 DUP3 DUP7 ADD PUSH2 0xCA2 JUMP JUMPDEST SWAP3 POP POP PUSH1 0x20 PUSH2 0xD4B DUP6 DUP3 DUP7 ADD PUSH2 0xD00 JUMP JUMPDEST SWAP2 POP POP SWAP3 POP SWAP3 SWAP1 POP JUMP JUMPDEST PUSH1 0x0 PUSH2 0xD60 DUP3 PUSH2 0xCD7 JUMP JUMPDEST SWAP1 POP SWAP2 SWAP1 POP JUMP JUMPDEST PUSH2 0xD70 DUP2 PUSH2 0xD55 JUMP JUMPDEST DUP2 EQ PUSH2 0xD7B JUMPI PUSH1 0x0 DUP1 REVERT JUMPDEST POP JUMP JUMPDEST PUSH1 0x0 DUP2 CALLDATALOAD SWAP1 POP PUSH2 0xD8D DUP2 PUSH2 0xD67 JUMP JUMPDEST SWAP3 SWAP2 POP POP JUMP JUMPDEST PUSH1 0x0 PUSH1 0x20 DUP3 DUP5 SUB SLT ISZERO PUSH2 0xDA9 JUMPI PUSH2 0xDA8 PUSH2 0xC7C JUMP JUMPDEST JUMPDEST PUSH1 0x0 PUSH2 0xDB7 DUP5 DUP3 DUP6 ADD PUSH2 0xD7E JUMP JUMPDEST SWAP2 POP POP SWAP3 SWAP2 POP POP JUMP JUMPDEST PUSH1 0x0 DUP2 ISZERO ISZERO SWAP1 POP SWAP2 SWAP1 POP JUMP JUMPDEST PUSH2 0xDD5 DUP2 PUSH2 0xDC0 JUMP JUMPDEST DUP2 EQ PUSH2 0xDE0 JUMPI PUSH1 0x0 DUP1 REVERT JUMPDEST POP JUMP JUMPDEST PUSH1 0x0 DUP2 CALLDATALOAD SWAP1 POP PUSH2 0xDF2 DUP2 PUSH2 0xDCC JUMP JUMPDEST SWAP3 SWAP2 POP POP JUMP JUMPDEST PUSH1 0x0 PUSH1 0x20 DUP3 DUP5 SUB SLT ISZERO PUSH2 0xE0E JUMPI PUSH2 0xE0D PUSH2 0xC7C JUMP JUMPDEST JUMPDEST PUSH1 0x0 PUSH2 0xE1C DUP5 DUP3 DUP6 ADD PUSH2 0xDE3 JUMP JUMPDEST SWAP2 POP POP SWAP3 SWAP2 POP POP JUMP JUMPDEST PUSH2 0xE2E DUP2 PUSH2 0xCD7 JUMP JUMPDEST DUP3 MSTORE POP POP JUMP JUMPDEST PUSH1 0x0 PUSH1 0x20 DUP3 ADD SWAP1 POP PUSH2 0xE49 PUSH1 0x0 DUP4 ADD DUP5 PUSH2 0xE25 JUMP JUMPDEST SWAP3 SWAP2 POP POP JUMP JUMPDEST PUSH2 0xE58 DUP2 PUSH2 0xDC0 JUMP JUMPDEST DUP3 MSTORE POP POP JUMP JUMPDEST PUSH1 0x0 PUSH1 0x20 DUP3 ADD SWAP1 POP PUSH2 0xE73 PUSH1 0x0 DUP4 ADD DUP5 PUSH2 0xE4F JUMP JUMPDEST SWAP3 SWAP2 POP POP JUMP JUMPDEST PUSH1 0x0 PUSH1 0x20 DUP3 DUP5 SUB SLT ISZERO PUSH2 0xE8F JUMPI PUSH2 0xE8E PUSH2 0xC7C JUMP JUMPDEST JUMPDEST PUSH1 0x0 PUSH2 0xE9D DUP5 DUP3 DUP6 ADD PUSH2 0xCA2 JUMP JUMPDEST SWAP2 POP POP SWAP3 SWAP2 POP POP JUMP JUMPDEST PUSH1 0x0 PUSH1 0x20 DUP3 DUP5 SUB SLT ISZERO PUSH2 0xEBC JUMPI PUSH2 0xEBB PUSH2 0xC7C JUMP JUMPDEST JUMPDEST PUSH1 0x0 PUSH2 0xECA DUP5 DUP3 DUP6 ADD PUSH2 0xD00 JUMP JUMPDEST SWAP2 POP POP SWAP3 SWAP2 POP POP JUMP JUMPDEST PUSH2 0xEDC DUP2 PUSH2 0xC81 JUMP JUMPDEST DUP3 MSTORE POP POP JUMP JUMPDEST PUSH1 0x0 PUSH1 0x20 DUP3 ADD SWAP1 POP PUSH2 0xEF7 PUSH1 0x0 DUP4 ADD DUP5 PUSH2 0xED3 JUMP JUMPDEST SWAP3 SWAP2 POP POP JUMP JUMPDEST PUSH1 0x0 DUP3 DUP3 MSTORE PUSH1 0x20 DUP3 ADD SWAP1 POP SWAP3 SWAP2 POP POP JUMP JUMPDEST PUSH32 0x4F776E61626C653A2063616C6C6572206973206E6F7420746865206F776E6572 PUSH1 0x0 DUP3 ADD MSTORE POP JUMP JUMPDEST PUSH1 0x0 PUSH2 0xF44 PUSH1 0x20 DUP4 PUSH2 0xEFD JUMP JUMPDEST SWAP2 POP PUSH2 0xF4F DUP3 PUSH2 0xF0E JUMP JUMPDEST PUSH1 0x20 DUP3 ADD SWAP1 POP SWAP2 SWAP1 POP JUMP JUMPDEST PUSH1 0x0 PUSH1 0x20 DUP3 ADD SWAP1 POP DUP2 DUP2 SUB PUSH1 0x0 DUP4 ADD MSTORE PUSH2 0xF73 DUP2 PUSH2 0xF37 JUMP JUMPDEST SWAP1 POP SWAP2 SWAP1 POP JUMP JUMPDEST PUSH32 0x5769746864726177206973206E6F7420617661696C61626C6500000000000000 PUSH1 0x0 DUP3 ADD MSTORE POP JUMP JUMPDEST PUSH1 0x0 PUSH2 0xFB0 PUSH1 0x19 DUP4 PUSH2 0xEFD JUMP JUMPDEST SWAP2 POP PUSH2 0xFBB DUP3 PUSH2 0xF7A JUMP JUMPDEST PUSH1 0x20 DUP3 ADD SWAP1 POP SWAP2 SWAP1 POP JUMP JUMPDEST PUSH1 0x0 PUSH1 0x20 DUP3 ADD SWAP1 POP DUP2 DUP2 SUB PUSH1 0x0 DUP4 ADD MSTORE PUSH2 0xFDF DUP2 PUSH2 0xFA3 JUMP JUMPDEST SWAP1 POP SWAP2 SWAP1 POP JUMP JUMPDEST PUSH32 0x457863656564206D6178696D756D20616D6F756E740000000000000000000000 PUSH1 0x0 DUP3 ADD MSTORE POP JUMP JUMPDEST PUSH1 0x0 PUSH2 0x101C PUSH1 0x15 DUP4 PUSH2 0xEFD JUMP JUMPDEST SWAP2 POP PUSH2 0x1027 DUP3 PUSH2 0xFE6 JUMP JUMPDEST PUSH1 0x20 DUP3 ADD SWAP1 POP SWAP2 SWAP1 POP JUMP JUMPDEST PUSH1 0x0 PUSH1 0x20 DUP3 ADD SWAP1 POP DUP2 DUP2 SUB PUSH1 0x0 DUP4 ADD MSTORE PUSH2 0x104B DUP2 PUSH2 0x100F JUMP JUMPDEST SWAP1 POP SWAP2 SWAP1 POP JUMP JUMPDEST PUSH1 0x0 PUSH1 0x40 DUP3 ADD SWAP1 POP PUSH2 0x1067 PUSH1 0x0 DUP4 ADD DUP6 PUSH2 0xE25 JUMP JUMPDEST PUSH2 0x1074 PUSH1 0x20 DUP4 ADD DUP5 PUSH2 0xED3 JUMP JUMPDEST SWAP4 SWAP3 POP POP POP JUMP JUMPDEST PUSH1 0x0 DUP2 MLOAD SWAP1 POP PUSH2 0x108A DUP2 PUSH2 0xDCC JUMP JUMPDEST SWAP3 SWAP2 POP POP JUMP JUMPDEST PUSH1 0x0 PUSH1 0x20 DUP3 DUP5 SUB SLT ISZERO PUSH2 0x10A6 JUMPI PUSH2 0x10A5 PUSH2 0xC7C JUMP JUMPDEST JUMPDEST PUSH1 0x0 PUSH2 0x10B4 DUP5 DUP3 DUP6 ADD PUSH2 0x107B JUMP JUMPDEST SWAP2 POP POP SWAP3 SWAP2 POP POP JUMP JUMPDEST PUSH1 0x0 PUSH1 0x40 DUP3 ADD SWAP1 POP PUSH2 0x10D2 PUSH1 0x0 DUP4 ADD DUP6 PUSH2 0xED3 JUMP JUMPDEST PUSH2 0x10DF PUSH1 0x20 DUP4 ADD DUP5 PUSH2 0xE25 JUMP JUMPDEST SWAP4 SWAP3 POP POP POP JUMP JUMPDEST PUSH1 0x0 DUP2 MLOAD SWAP1 POP PUSH2 0x10F5 DUP2 PUSH2 0xC8B JUMP JUMPDEST SWAP3 SWAP2 POP POP JUMP JUMPDEST PUSH1 0x0 PUSH1 0x20 DUP3 DUP5 SUB SLT ISZERO PUSH2 0x1111 JUMPI PUSH2 0x1110 PUSH2 0xC7C JUMP JUMPDEST JUMPDEST PUSH1 0x0 PUSH2 0x111F DUP5 DUP3 DUP6 ADD PUSH2 0x10E6 JUMP JUMPDEST SWAP2 POP POP SWAP3 SWAP2 POP POP JUMP JUMPDEST PUSH32 0x496E73756666696369656E74206163636F756E742062616C616E636500000000 PUSH1 0x0 DUP3 ADD MSTORE POP JUMP JUMPDEST PUSH1 0x0 PUSH2 0x115E PUSH1 0x1C DUP4 PUSH2 0xEFD JUMP JUMPDEST SWAP2 POP PUSH2 0x1169 DUP3 PUSH2 0x1128 JUMP JUMPDEST PUSH1 0x20 DUP3 ADD SWAP1 POP SWAP2 SWAP1 POP JUMP JUMPDEST PUSH1 0x0 PUSH1 0x20 DUP3 ADD SWAP1 POP DUP2 DUP2 SUB PUSH1 0x0 DUP4 ADD MSTORE PUSH2 0x118D DUP2 PUSH2 0x1151 JUMP JUMPDEST SWAP1 POP SWAP2 SWAP1 POP JUMP JUMPDEST PUSH32 0x4F776E61626C653A206E6577206F776E657220697320746865207A65726F2061 PUSH1 0x0 DUP3 ADD MSTORE PUSH32 0x6464726573730000000000000000000000000000000000000000000000000000 PUSH1 0x20 DUP3 ADD MSTORE POP JUMP JUMPDEST PUSH1 0x0 PUSH2 0x11F0 PUSH1 0x26 DUP4 PUSH2 0xEFD JUMP JUMPDEST SWAP2 POP PUSH2 0x11FB DUP3 PUSH2 0x1194 JUMP JUMPDEST PUSH1 0x40 DUP3 ADD SWAP1 POP SWAP2 SWAP1 POP JUMP JUMPDEST PUSH1 0x0 PUSH1 0x20 DUP3 ADD SWAP1 POP DUP2 DUP2 SUB PUSH1 0x0 DUP4 ADD MSTORE PUSH2 0x121F DUP2 PUSH2 0x11E3 JUMP JUMPDEST SWAP1 POP SWAP2 SWAP1 POP JUMP JUMPDEST PUSH1 0x0 PUSH1 0x60 DUP3 ADD SWAP1 POP PUSH2 0x123B PUSH1 0x0 DUP4 ADD DUP7 PUSH2 0xE25 JUMP JUMPDEST PUSH2 0x1248 PUSH1 0x20 DUP4 ADD DUP6 PUSH2 0xE25 JUMP JUMPDEST PUSH2 0x1255 PUSH1 0x40 DUP4 ADD DUP5 PUSH2 0xED3 JUMP JUMPDEST SWAP5 SWAP4 POP POP POP POP JUMP JUMPDEST PUSH32 0x5361666545524332303A204552433230206F7065726174696F6E20646964206E PUSH1 0x0 DUP3 ADD MSTORE PUSH32 0x6F74207375636365656400000000000000000000000000000000000000000000 PUSH1 0x20 DUP3 ADD MSTORE POP JUMP JUMPDEST PUSH1 0x0 PUSH2 0x12B9 PUSH1 0x2A DUP4 PUSH2 0xEFD JUMP JUMPDEST SWAP2 POP PUSH2 0x12C4 DUP3 PUSH2 0x125D JUMP JUMPDEST PUSH1 0x40 DUP3 ADD SWAP1 POP SWAP2 SWAP1 POP JUMP JUMPDEST PUSH1 0x0 PUSH1 0x20 DUP3 ADD SWAP1 POP DUP2 DUP2 SUB PUSH1 0x0 DUP4 ADD MSTORE PUSH2 0x12E8 DUP2 PUSH2 0x12AC JUMP JUMPDEST SWAP1 POP SWAP2 SWAP1 POP JUMP JUMPDEST PUSH32 0x416464726573733A20696E73756666696369656E742062616C616E636520666F PUSH1 0x0 DUP3 ADD MSTORE PUSH32 0x722063616C6C0000000000000000000000000000000000000000000000000000 PUSH1 0x20 DUP3 ADD MSTORE POP JUMP JUMPDEST PUSH1 0x0 PUSH2 0x134B PUSH1 0x26 DUP4 PUSH2 0xEFD JUMP JUMPDEST SWAP2 POP PUSH2 0x1356 DUP3 PUSH2 0x12EF JUMP JUMPDEST PUSH1 0x40 DUP3 ADD SWAP1 POP SWAP2 SWAP1 POP JUMP JUMPDEST PUSH1 0x0 PUSH1 0x20 DUP3 ADD SWAP1 POP DUP2 DUP2 SUB PUSH1 0x0 DUP4 ADD MSTORE PUSH2 0x137A DUP2 PUSH2 0x133E JUMP JUMPDEST SWAP1 POP SWAP2 SWAP1 POP JUMP JUMPDEST PUSH32 0x416464726573733A2063616C6C20746F206E6F6E2D636F6E7472616374000000 PUSH1 0x0 DUP3 ADD MSTORE POP JUMP JUMPDEST PUSH1 0x0 PUSH2 0x13B7 PUSH1 0x1D DUP4 PUSH2 0xEFD JUMP JUMPDEST SWAP2 POP PUSH2 0x13C2 DUP3 PUSH2 0x1381 JUMP JUMPDEST PUSH1 0x20 DUP3 ADD SWAP1 POP SWAP2 SWAP1 POP JUMP JUMPDEST PUSH1 0x0 PUSH1 0x20 DUP3 ADD SWAP1 POP DUP2 DUP2 SUB PUSH1 0x0 DUP4 ADD MSTORE PUSH2 0x13E6 DUP2 PUSH2 0x13AA JUMP JUMPDEST SWAP1 POP SWAP2 SWAP1 POP JUMP JUMPDEST PUSH1 0x0 DUP2 MLOAD SWAP1 POP SWAP2 SWAP1 POP JUMP JUMPDEST PUSH1 0x0 DUP2 SWAP1 POP SWAP3 SWAP2 POP POP JUMP JUMPDEST PUSH1 0x0 JUMPDEST DUP4 DUP2 LT ISZERO PUSH2 0x1421 JUMPI DUP1 DUP3 ADD MLOAD DUP2 DUP5 ADD MSTORE PUSH1 0x20 DUP2 ADD SWAP1 POP PUSH2 0x1406 JUMP JUMPDEST PUSH1 0x0 DUP5 DUP5 ADD MSTORE POP POP POP POP JUMP JUMPDEST PUSH1 0x0 PUSH2 0x1438 DUP3 PUSH2 0x13ED JUMP JUMPDEST PUSH2 0x1442 DUP2 DUP6 PUSH2 0x13F8 JUMP JUMPDEST SWAP4 POP PUSH2 0x1452 DUP2 DUP6 PUSH1 0x20 DUP7 ADD PUSH2 0x1403 JUMP JUMPDEST DUP1 DUP5 ADD SWAP2 POP POP SWAP3 SWAP2 POP POP JUMP JUMPDEST PUSH1 0x0 PUSH2 0x146A DUP3 DUP5 PUSH2 0x142D JUMP JUMPDEST SWAP2 POP DUP2 SWAP1 POP SWAP3 SWAP2 POP POP JUMP JUMPDEST PUSH1 0x0 DUP2 MLOAD SWAP1 POP SWAP2 SWAP1 POP JUMP JUMPDEST PUSH1 0x0 PUSH1 0x1F NOT PUSH1 0x1F DUP4 ADD AND SWAP1 POP SWAP2 SWAP1 POP JUMP JUMPDEST PUSH1 0x0 PUSH2 0x149C DUP3 PUSH2 0x1475 JUMP JUMPDEST PUSH2 0x14A6 DUP2 DUP6 PUSH2 0xEFD JUMP JUMPDEST SWAP4 POP PUSH2 0x14B6 DUP2 DUP6 PUSH1 0x20 DUP7 ADD PUSH2 0x1403 JUMP JUMPDEST PUSH2 0x14BF DUP2 PUSH2 0x1480 JUMP JUMPDEST DUP5 ADD SWAP2 POP POP SWAP3 SWAP2 POP POP JUMP JUMPDEST PUSH1 0x0 PUSH1 0x20 DUP3 ADD SWAP1 POP DUP2 DUP2 SUB PUSH1 0x0 DUP4 ADD MSTORE PUSH2 0x14E4 DUP2 DUP5 PUSH2 0x1491 JUMP JUMPDEST SWAP1 POP SWAP3 SWAP2 POP POP JUMP INVALID LOG2 PUSH5 0x6970667358 0x22 SLT KECCAK256 0xB3 SWAP13 0xE1 0xB3 0xCF 0xE1 NUMBER 0x1F 0x4E 0xF 0x2D LOG2 0x5D 0xCC PUSH6 0x79AB7EDB42F0 PUSH23 0x6D439BDE35AABEA73A9364736F6C634300081100330000 "},"methodIdentifiers":{"deposit(uint256)":"b6b55f25","maxWithdrawAmount()":"f516440c","owner()":"8da5cb5b","renounceOwnership()":"715018a6","setMaxWithdrawAmount(uint256)":"df74e028","setToken(address)":"144fa6d7","setWithdrawEnable(bool)":"827a560b","transferOwnership(address)":"f2fde38b","withdraw(uint256,address)":"00f714ce","withdrawEnable()":"b5b68afe"}}}}}