{
  "_format": "hh-sol-artifact-1",
  "contractName": "Vault",
  "sourceName": "contracts/Vault.sol",
  "abi": [
    {
      "inputs": [],
      "stateMutability": "nonpayable",
      "type": "constructor"
    },
    {
      "anonymous": false,
      "inputs": [
        {
          "indexed": false,
          "internalType": "uint256",
          "name": "amount",
          "type": "uint256"
        },
        {
          "indexed": false,
          "internalType": "address",
          "name": "to",
          "type": "address"
        }
      ],
      "name": "EventWithdraw",
      "type": "event"
    },
    {
      "anonymous": false,
      "inputs": [
        {
          "indexed": true,
          "internalType": "address",
          "name": "previousOwner",
          "type": "address"
        },
        {
          "indexed": true,
          "internalType": "address",
          "name": "newOwner",
          "type": "address"
        }
      ],
      "name": "OwnershipTransferred",
      "type": "event"
    },
    {
      "anonymous": false,
      "inputs": [
        {
          "indexed": false,
          "internalType": "uint256",
          "name": "AdminAmount",
          "type": "uint256"
        }
      ],
      "name": "TopUp",
      "type": "event"
    },
    {
      "anonymous": false,
      "inputs": [
        {
          "indexed": false,
          "internalType": "uint256",
          "name": "user_amount",
          "type": "uint256"
        },
        {
          "indexed": false,
          "internalType": "address",
          "name": "UserAddress",
          "type": "address"
        }
      ],
      "name": "UserDeposit",
      "type": "event"
    },
    {
      "inputs": [
        {
          "internalType": "uint256",
          "name": "_amount",
          "type": "uint256"
        }
      ],
      "name": "deposit",
      "outputs": [],
      "stateMutability": "nonpayable",
      "type": "function"
    },
    {
      "inputs": [],
      "name": "maxWithdrawAmount",
      "outputs": [
        {
          "internalType": "uint256",
          "name": "",
          "type": "uint256"
        }
      ],
      "stateMutability": "view",
      "type": "function"
    },
    {
      "inputs": [],
      "name": "owner",
      "outputs": [
        {
          "internalType": "address",
          "name": "",
          "type": "address"
        }
      ],
      "stateMutability": "view",
      "type": "function"
    },
    {
      "inputs": [],
      "name": "renounceOwnership",
      "outputs": [],
      "stateMutability": "nonpayable",
      "type": "function"
    },
    {
      "inputs": [
        {
          "internalType": "uint256",
          "name": "_maxAmount",
          "type": "uint256"
        }
      ],
      "name": "setMaxWithdrawAmount",
      "outputs": [],
      "stateMutability": "nonpayable",
      "type": "function"
    },
    {
      "inputs": [
        {
          "internalType": "contract IERC20",
          "name": "_token",
          "type": "address"
        }
      ],
      "name": "setToken",
      "outputs": [],
      "stateMutability": "nonpayable",
      "type": "function"
    },
    {
      "inputs": [
        {
          "internalType": "bool",
          "name": "_isEnable",
          "type": "bool"
        }
      ],
      "name": "setWithdrawEnable",
      "outputs": [],
      "stateMutability": "nonpayable",
      "type": "function"
    },
    {
      "inputs": [
        {
          "internalType": "address",
          "name": "newOwner",
          "type": "address"
        }
      ],
      "name": "transferOwnership",
      "outputs": [],
      "stateMutability": "nonpayable",
      "type": "function"
    },
    {
      "inputs": [
        {
          "internalType": "uint256",
          "name": "_amount",
          "type": "uint256"
        },
        {
          "internalType": "address",
          "name": "_to",
          "type": "address"
        }
      ],
      "name": "withdraw",
      "outputs": [],
      "stateMutability": "nonpayable",
      "type": "function"
    },
    {
      "inputs": [],
      "name": "withdrawEnable",
      "outputs": [
        {
          "internalType": "bool",
          "name": "",
          "type": "bool"
        }
      ],
      "stateMutability": "view",
      "type": "function"
    }
  ],
  "bytecode": "0x608060405234801561001057600080fd5b5061002d61002261003260201b60201c565b61003a60201b60201c565b6100fe565b600033905090565b60008060009054906101000a900473ffffffffffffffffffffffffffffffffffffffff169050816000806101000a81548173ffffffffffffffffffffffffffffffffffffffff021916908373ffffffffffffffffffffffffffffffffffffffff1602179055508173ffffffffffffffffffffffffffffffffffffffff168173ffffffffffffffffffffffffffffffffffffffff167f8be0079c531659141344cd1fd0a4f28419497f9722a3daafe3b4186f6b6457e060405160405180910390a35050565b6115228061010d6000396000f3fe608060405234801561001057600080fd5b506004361061009d5760003560e01c8063b5b68afe11610066578063b5b68afe1461011e578063b6b55f251461013c578063df74e02814610158578063f2fde38b14610174578063f516440c146101905761009d565b8062f714ce146100a2578063144fa6d7146100be578063715018a6146100da578063827a560b146100e45780638da5cb5b14610100575b600080fd5b6100bc60048036038101906100b79190610d15565b6101ae565b005b6100d860048036038101906100d39190610d93565b6103af565b005b6100e261046f565b005b6100fe60048036038101906100f99190610df8565b6104f7565b005b610108610590565b6040516101159190610e34565b60405180910390f35b6101266105b9565b6040516101339190610e5e565b60405180910390f35b61015660048036038101906101519190610e79565b6105cc565b005b610172600480360381019061016d9190610e79565b610714565b005b61018e60048036038101906101899190610ea6565b61079a565b005b610198610891565b6040516101a59190610ee2565b60405180910390f35b6101b6610897565b73ffffffffffffffffffffffffffffffffffffffff166101d4610590565b73ffffffffffffffffffffffffffffffffffffffff161461022a576040517f08c379a000000000000000000000000000000000000000000000000000000000815260040161022190610f5a565b60405180910390fd5b6102333361089f565b1561023d57600080fd5b600360009054906101000a900460ff1661028c576040517f08c379a000000000000000000000000000000000000000000000000000000000815260040161028390610fc6565b60405180910390fd5b6002548211156102d1576040517f08c379a00000000000000000000000000000000000000000000000000000000081526004016102c890611032565b60405180910390fd5b600160009054906101000a900473ffffffffffffffffffffffffffffffffffffffff1673ffffffffffffffffffffffffffffffffffffffff1663a9059cbb82846040518363ffffffff1660e01b815260040161032e929190611052565b6020604051808303816000875af115801561034d573d6000803e3d6000fd5b505050506040513d601f19601f820116820180604052508101906103719190611090565b507f85eae98551d810f4262f4597584f04643b4d9577dbff3da49b8fdf12ec7eca1982826040516103a39291906110bd565b60405180910390a15050565b6103b7610897565b73ffffffffffffffffffffffffffffffffffffffff166103d5610590565b73ffffffffffffffffffffffffffffffffffffffff161461042b576040517f08c379a000000000000000000000000000000000000000000000000000000000815260040161042290610f5a565b60405180910390fd5b80600160006101000a81548173ffffffffffffffffffffffffffffffffffffffff021916908373ffffffffffffffffffffffffffffffffffffffff16021790555050565b610477610897565b73ffffffffffffffffffffffffffffffffffffffff16610495610590565b73ffffffffffffffffffffffffffffffffffffffff16146104eb576040517f08c379a00000000000000000000000000000000000000000000000000000000081526004016104e290610f5a565b60405180910390fd5b6104f560006108b2565b565b6104ff610897565b73ffffffffffffffffffffffffffffffffffffffff1661051d610590565b73ffffffffffffffffffffffffffffffffffffffff1614610573576040517f08c379a000000000000000000000000000000000000000000000000000000000815260040161056a90610f5a565b60405180910390fd5b80600360006101000a81548160ff02191690831515021790555050565b60008060009054906101000a900473ffffffffffffffffffffffffffffffffffffffff16905090565b600360009054906101000a900460ff1681565b80600160009054906101000a900473ffffffffffffffffffffffffffffffffffffffff1673ffffffffffffffffffffffffffffffffffffffff166370a08231336040518263ffffffff1660e01b81526004016106289190610e34565b602060405180830381865afa158015610645573d6000803e3d6000fd5b505050506040513d601f19601f8201168201806040525081019061066991906110fb565b10156106aa576040517f08c379a00000000000000000000000000000000000000000000000000000000081526004016106a190611174565b60405180910390fd5b6106d8600160009054906101000a900473ffffffffffffffffffffffffffffffffffffffff16333084610976565b7fb391639a04466a30868f922cde0b9ad39c2df38812bb39e096b665038a12019281336040516107099291906110bd565b60405180910390a150565b61071c610897565b73ffffffffffffffffffffffffffffffffffffffff1661073a610590565b73ffffffffffffffffffffffffffffffffffffffff1614610790576040517f08c379a000000000000000000000000000000000000000000000000000000000815260040161078790610f5a565b60405180910390fd5b8060028190555050565b6107a2610897565b73ffffffffffffffffffffffffffffffffffffffff166107c0610590565b73ffffffffffffffffffffffffffffffffffffffff1614610816576040517f08c379a000000000000000000000000000000000000000000000000000000000815260040161080d90610f5a565b60405180910390fd5b600073ffffffffffffffffffffffffffffffffffffffff168173ffffffffffffffffffffffffffffffffffffffff1603610885576040517f08c379a000000000000000000000000000000000000000000000000000000000815260040161087c90611206565b60405180910390fd5b61088e816108b2565b50565b60025481565b600033905090565b600080823b905060008111915050919050565b60008060009054906101000a900473ffffffffffffffffffffffffffffffffffffffff169050816000806101000a81548173ffffffffffffffffffffffffffffffffffffffff021916908373ffffffffffffffffffffffffffffffffffffffff1602179055508173ffffffffffffffffffffffffffffffffffffffff168173ffffffffffffffffffffffffffffffffffffffff167f8be0079c531659141344cd1fd0a4f28419497f9722a3daafe3b4186f6b6457e060405160405180910390a35050565b6109f9846323b872dd60e01b85858560405160240161099793929190611226565b604051602081830303815290604052907bffffffffffffffffffffffffffffffffffffffffffffffffffffffff19166020820180517bffffffffffffffffffffffffffffffffffffffffffffffffffffffff83818316178352505050506109ff565b50505050565b6000610a61826040518060400160405280602081526020017f5361666545524332303a206c6f772d6c6576656c2063616c6c206661696c65648152508573ffffffffffffffffffffffffffffffffffffffff16610ac69092919063ffffffff16565b9050600081511115610ac15780806020019051810190610a819190611090565b610ac0576040517f08c379a0000000000000000000000000000000000000000000000000000000008152600401610ab7906112cf565b60405180910390fd5b5b505050565b6060610ad58484600085610ade565b90509392505050565b606082471015610b23576040517f08c379a0000000000000000000000000000000000000000000000000000000008152600401610b1a90611361565b60405180910390fd5b610b2c85610bf2565b610b6b576040517f08c379a0000000000000000000000000000000000000000000000000000000008152600401610b62906113cd565b60405180910390fd5b6000808673ffffffffffffffffffffffffffffffffffffffff168587604051610b94919061145e565b60006040518083038185875af1925050503d8060008114610bd1576040519150601f19603f3d011682016040523d82523d6000602084013e610bd6565b606091505b5091509150610be6828286610c15565b92505050949350505050565b6000808273ffffffffffffffffffffffffffffffffffffffff163b119050919050565b60608315610c2557829050610c75565b600083511115610c385782518084602001fd5b816040517f08c379a0000000000000000000000000000000000000000000000000000000008152600401610c6c91906114ca565b60405180910390fd5b9392505050565b600080fd5b6000819050919050565b610c9481610c81565b8114610c9f57600080fd5b50565b600081359050610cb181610c8b565b92915050565b600073ffffffffffffffffffffffffffffffffffffffff82169050919050565b6000610ce282610cb7565b9050919050565b610cf281610cd7565b8114610cfd57600080fd5b50565b600081359050610d0f81610ce9565b92915050565b60008060408385031215610d2c57610d2b610c7c565b5b6000610d3a85828601610ca2565b9250506020610d4b85828601610d00565b9150509250929050565b6000610d6082610cd7565b9050919050565b610d7081610d55565b8114610d7b57600080fd5b50565b600081359050610d8d81610d67565b92915050565b600060208284031215610da957610da8610c7c565b5b6000610db784828501610d7e565b91505092915050565b60008115159050919050565b610dd581610dc0565b8114610de057600080fd5b50565b600081359050610df281610dcc565b92915050565b600060208284031215610e0e57610e0d610c7c565b5b6000610e1c84828501610de3565b91505092915050565b610e2e81610cd7565b82525050565b6000602082019050610e496000830184610e25565b92915050565b610e5881610dc0565b82525050565b6000602082019050610e736000830184610e4f565b92915050565b600060208284031215610e8f57610e8e610c7c565b5b6000610e9d84828501610ca2565b91505092915050565b600060208284031215610ebc57610ebb610c7c565b5b6000610eca84828501610d00565b91505092915050565b610edc81610c81565b82525050565b6000602082019050610ef76000830184610ed3565b92915050565b600082825260208201905092915050565b7f4f776e61626c653a2063616c6c6572206973206e6f7420746865206f776e6572600082015250565b6000610f44602083610efd565b9150610f4f82610f0e565b602082019050919050565b60006020820190508181036000830152610f7381610f37565b9050919050565b7f5769746864726177206973206e6f7420617661696c61626c6500000000000000600082015250565b6000610fb0601983610efd565b9150610fbb82610f7a565b602082019050919050565b60006020820190508181036000830152610fdf81610fa3565b9050919050565b7f457863656564206d6178696d756d20616d6f756e740000000000000000000000600082015250565b600061101c601583610efd565b915061102782610fe6565b602082019050919050565b6000602082019050818103600083015261104b8161100f565b9050919050565b60006040820190506110676000830185610e25565b6110746020830184610ed3565b9392505050565b60008151905061108a81610dcc565b92915050565b6000602082840312156110a6576110a5610c7c565b5b60006110b48482850161107b565b91505092915050565b60006040820190506110d26000830185610ed3565b6110df6020830184610e25565b9392505050565b6000815190506110f581610c8b565b92915050565b60006020828403121561111157611110610c7c565b5b600061111f848285016110e6565b91505092915050565b7f496e73756666696369656e74206163636f756e742062616c616e636500000000600082015250565b600061115e601c83610efd565b915061116982611128565b602082019050919050565b6000602082019050818103600083015261118d81611151565b9050919050565b7f4f776e61626c653a206e6577206f776e657220697320746865207a65726f206160008201527f6464726573730000000000000000000000000000000000000000000000000000602082015250565b60006111f0602683610efd565b91506111fb82611194565b604082019050919050565b6000602082019050818103600083015261121f816111e3565b9050919050565b600060608201905061123b6000830186610e25565b6112486020830185610e25565b6112556040830184610ed3565b949350505050565b7f5361666545524332303a204552433230206f7065726174696f6e20646964206e60008201527f6f74207375636365656400000000000000000000000000000000000000000000602082015250565b60006112b9602a83610efd565b91506112c48261125d565b604082019050919050565b600060208201905081810360008301526112e8816112ac565b9050919050565b7f416464726573733a20696e73756666696369656e742062616c616e636520666f60008201527f722063616c6c0000000000000000000000000000000000000000000000000000602082015250565b600061134b602683610efd565b9150611356826112ef565b604082019050919050565b6000602082019050818103600083015261137a8161133e565b9050919050565b7f416464726573733a2063616c6c20746f206e6f6e2d636f6e7472616374000000600082015250565b60006113b7601d83610efd565b91506113c282611381565b602082019050919050565b600060208201905081810360008301526113e6816113aa565b9050919050565b600081519050919050565b600081905092915050565b60005b83811015611421578082015181840152602081019050611406565b60008484015250505050565b6000611438826113ed565b61144281856113f8565b9350611452818560208601611403565b80840191505092915050565b600061146a828461142d565b915081905092915050565b600081519050919050565b6000601f19601f8301169050919050565b600061149c82611475565b6114a68185610efd565b93506114b6818560208601611403565b6114bf81611480565b840191505092915050565b600060208201905081810360008301526114e48184611491565b90509291505056fea2646970667358221220b39ce1b3cfe1431f4e0f2da25dcc6579ab7edb42f0766d439bde35aabea73a9364736f6c63430008110033",
  "linkReferences": {},
  "deployedLinkReferences": {}
}